:020000040800F2
:10000000580C002001010008090100080B0100083C
:100010000D0100080F010008110100080000000098
:1000200000000000000000000000000013010008B4
:1000300015010008000000001701000885090008EC
:100040001B0100081B0100081B0100081B01000820
:100050001B0100081B0100081B0100081B01000810
:100060001B0100081B0100081B0100081B01000800
:100070001B0100081B0100081B0100081B010008F0
:100080001B0100081B0100081B0100081B010008E0
:100090001B0100081B0100081B0100081B010008D0
:1000A0001B0100081B0100081B0100081B010008C0
:1000B0001B0100081B0100081B0100081B010008B0
:1000C0001B0100081B0100081B0100081B010008A0
:1000D0001B010008650A0008910A00081B010008BE
:1000E0001B0100081B0100081B010008DFF80CD0F1
:1000F00000F08AF800480047970E0008580C0020CE
:100100000648804706480047FEE7FEE7FEE7FEE7B1
:10011000FEE7FEE7FEE7FEE7FEE7FEE7050A00086A
:10012000ED00000840EA01039B0703D009E008C97D
:10013000121F08C0042AFAD203E011F8013B00F8AC
:10014000013B521EF9D2704780EA010210B502F05D
:100150000043400022D04A001FD0010E01EB126183
:10016000C0F35600C2F3560240F4000042F400020D
:10017000A0FB022000047F39140400D0401C50EA88
:10018000124001D44000491EC2B20C0604EBD0104C
:10019000401C4008802A02D003E0002010BD20F05F
:1001A0000100002900DA0020184310BD00F00042D1
:1001B00020F00040C10DC0F3160040F400007F297C
:1001C00001DA00207047962903DCC1F19601C8408E
:1001D00001E096398840002AF4D040427047000080
:1001E000002801DBC0F10040002901DBC1F1004122
:1001F00081427047002801DBC0F10040002901DB8B
:10020000C1F1004188427047064C074D06E0E068A6
:1002100040F0010394E8070098471034AC42F6D34D
:10022000FFF768FF10100008301000082DE9F843B0
:1002300002250E4E4FF47A777C104FF000083B46B3
:10024000324641460A480094006800F067F86000B2
:1002500000F08EFB23462A4641460548006800F020
:10026000A7F8600000F084FBBDE8F88300000743B6
:100270000400002070B504460D462188284600F091
:10028000CFFAA178284600F0ABFA94F8660110B9CD
:10029000A088FF2808DDFF21284600F0A1FAA188E8
:1002A000284600F0BDFA03E02179284600F098FACC
:1002B000A288A11D284600F09BFA284600F01AFAF1
:1002C00006463146284600F08BFA70BD2DE9F04114
:1002D000DAB004460D4616461F46DDF880814FF41D
:1002E000B4720D496846FFF71DFF8DF80250ADF856
:1002F00004608DF86681324639460DF10600FFF73D
:1003000011FF68466168FFF7B5FF204600F094FDD5
:100310005AB0BDE8F0810000A80E00082DE9F04FAA
:1003200087B006460F4614461D46DDF840804FF064
:10033000070A05AA072102A800F0F8F91949204682
:10034000FFF758FF01D2174C05E017492046FFF789
:1003500047FF00D2144C394602A800F041FA21466A
:100360001248FFF7F1FE8346FFF720FF0FFA80F9EE
:10037000494602A800F04BFA294602A800F050FABC
:10038000414602A800F04CFA00200DF115030722A7
:10039000082100903046FFF799FF002007B0BDE824
:1003A000F08F000000003443000034C300002041FF
:1003B0002DE9F04186B006460F4614461D464FF023
:1003C000040804AA042101A800F0B0F9394601A8E4
:1003D00000F006FA44F01004214601A800F000FAEB
:1003E00029B201A800F013FA00200DF11103042234
:1003F000182100903046FFF769FF002006B0BDE8E5
:10040000F0812DE9F041024600250026002000235E
:100410000024002791F803C00CF00F0591F803C0E9
:100420000CF0100CBCF1000F03D091F802C04CEAA4
:10043000050591F800C0BCF1000F31D01468002010
:100440002BE04FF0010C0CFA00F3B1F800C00CEAFD
:1004500003069E4220D183004FF00F0C0CFA03F7E5
:10046000BC4305FA03FC4CEA040491F803C0BCF158
:10047000280F06D14FF0010C0CFA00FCC2F814C092
:100480000AE091F803C0BCF1480F05D14FF0010C10
:100490000CFA00FCC2F810C0401C0828D1D314602C
:1004A000B1F800C0BCF1FF0F34DD546800202EE02D
:1004B00000F1080C4FF0010808FA0CF3B1F800C085
:1004C0000CEA03069E4221D183004FF00F0C0CFA78
:1004D00003F7BC4305FA03FC4CEA040491F803C09B
:1004E000BCF1280F05D100F1080C08FA0CF8C2F88D
:1004F000148091F803C0BCF1480F07D100F1080C3B
:100500004FF0010808FA0CF8C2F81080401C0828C7
:10051000CED35460BDE8F08170B5002100230F22D6
:10052000C47804B3154C246804F4E064C4F5E064B2
:10053000210AC1F10403CA40447804FA03F1847823
:100540001440214309010E4C0678A155047804F0AB
:100550001F050124AC4005786D11AD0005F1E025C3
:10056000C5F8004109E0047804F01F050124AC40FF
:10057000044D0678761145F8264070BD0CED00E07C
:1005800000E400E080E100E002490143024A11601A
:10059000704700000000FA050CED00E029B1064AA2
:1005A000D2690243044BDA6104E0034AD269824310
:1005B000014BDA61704700000010024029B1064A81
:1005C00092690243044B9A6104E0034A92698243B0
:1005D000014B9A61704700000010024030B50021C5
:1005E0000022002400232D4D6D6805F00C0121B17F
:1005F000042905D0082923D105E0294D056022E012
:10060000274D05601FE0254D6D6805F47012234DE0
:100610006D6805F48034022505EB92421CB9214D2A
:10062000554305600BE01D4D6D6805F400351DB1A7
:100630001C4D5543056002E0194D5543056002E02D
:10064000174D056000BF00BF144D6D6805F0F00147
:100650000909154D6B5C0568DD4045600F4D6D68FF
:1006600005F4E061090A104D6B5C4568DD4085606A
:100670000A4D6D6805F46051C90A0B4D6B5C456805
:10068000DD40C560054D6D6805F44041890B074D9F
:100690006B5CC568B5FBF3F5056130BD0010024029
:1006A00000127A0000093D000C0000201C00002010
:1006B00010B50346184600F018F80446184600F036
:1006C00003F8201A80B210BD01468888CA8890427B
:1006D00004DCC8888A88801A80B270478888CA88F3
:1006E000801A0A89101A80B2F7E701460889401E6D
:1006F00080B27047F0B503461846FFF7E5FF0546A0
:10070000002400200EE09A880244521C1E8992FBAD
:10071000F6F706FB172291B21A68525C2244D4B253
:10072000411C88B2A842EEDBE0B2F0BD30B50B460A
:10073000026000218180C180591C0181002104E0F8
:10074000002405686C544C1CA1B204898C42F7DC6F
:1007500030BD10B504462046FFF7AAFF02462046EA
:10076000FFF7C3FF824201D1012010BD0020FCE74A
:1007700010B504462046FFF79BFF08B9012010BDC5
:100780000020FCE730B504462046FFF7E2FF08B141
:10079000002030BDA088401C218990FBF1F201FBB4
:1007A0001200A080A1882068455C0020A2882168F2
:1007B00088542846EDE730B504460D462046FFF73D
:1007C000D7FF00B130BDE088401C218990FBF1F2D9
:1007D00001FB1200E080E1882068455400BFF1E78A
:1007E00030B504460D4629462046FFF7E4FF30BDEC
:1007F000F0B507460D461646002405E0295D38464B
:10080000FFF7D9FF601C84B2B442F7DBF0BD33B50B
:10081000044601AD022229462046FFF7E9FF3CBD10
:1008200033B5044601AD022229462046FFF7E0FF1A
:100830003CBD10B500F002F810BD00000CB5002062
:10084000019000903348006840F4803031490860DE
:1008500000BF3048006800F4003000900198401C50
:100860000190009818B90198B0F5A06FF1D129480E
:10087000006800F4003010B10120009001E0002079
:1008800000900098012843D12348006840F01000F0
:10089000214908600846006820F003000860084607
:1008A000006840F0020008601A4840681949486032
:1008B0000846406848600846406840F480604860E8
:1008C0000846406820F47C1048600846406840F4C0
:1008D000E81048600846006840F08070086000BF7B
:1008E0000C48006800F000700028F9D00948406802
:1008F00020F00300074948600846406840F00200C5
:10090000486000BF0348406800F00C000828F9D197
:100910000CBD0000001002400020024030B501462E
:10092000B1F1807F01D3012030BD21F07F40401E16
:100930004FF0E022506150170F22002807DA13070A
:100940001D0E094B00F00F04241F1D5503E0130773
:100950001C0E064B1C5400BF00204FF0E02290619B
:10096000072010610020DFE718ED00E000E400E060
:1009700001B503490098086000F02CF808BD00009C
:10098000000000200648006828B105480068401EA5
:100990000349086002E00020014908607047000038
:1009A0000000002010B50A4800684FF47A71B0FBCF
:1009B000F1F42046FFF7B2FF08B100BFFEE74FF0A9
:1009C000E020006920F001004FF0E021086110BD37
:1009D000200000204FF0E020006940F001004FF0BF
:1009E000E021086100BF064800680028FBD14FF0F5
:1009F000E020006920F001004FF0E021086170471D
:100A00000000002010B51348006840F001001149B3
:100A1000086008464068104908400E49486008468A
:100A200000680E4908400B4908600846006820F439
:100A3000802008600846406820F4FE0048604FF4BB
:100A40001F008860FFF7F5FE4FF000600449086062
:100A500010BD0000001002400000FFF8FFFFF6FE8E
:100A600008ED00E010B540F22551074800F03FF8CE
:100A700040B1054800F0F6F8C4B204498868214640
:100A8000FFF799FE10BD0000003801403804002037
:100A900010B540F22551074800F029F848B1064941
:100AA000086800F0DFF8C4B2034988682146FFF700
:100AB00082FE10BD004400404808002021B1828918
:100AC00042F40052828104E082894DF6FF731A409D
:100AD0008281704702460020B1F5007F00D100BF3F
:100AE00013880B400BB1012000E00020704770B567
:100AF0000246002400230025002040F66A16B14279
:100B000000D100BFC1F3421501F01F03012606FA10
:100B100003F3012D02D19689334006E0022D02D164
:100B2000168A334001E0968A33400C12012606FAF9
:100B300004F41688344013B10CB1012000E0002009
:100B400070BDF0B50346002400260025002040F6C5
:100B50006A17B94200D100BF1846C1F3421401F030
:100B60001F06012707FA06F5012C01D10C3004E01D
:100B7000022C01D1103000E014301AB107682F4365
:100B8000076002E00768AF430760F0BD2DE9F0475A
:100B900086B005460E460024A24600BFA1460027A7
:100BA000B08900B100BF2F462C8A4CF6FF7004407C
:100BB000F08804432C82AC894EF6F3100440B088D0
:100BC00031890843718908430443AC81AC8A4FF6EC
:100BD000FF400440B0890443AC8201A8FFF7FEFC4B
:100BE0001F48874202D1DDF810A001E0DDF80CA01B
:100BF000A88900F4004040B10AEBCA0000EB0A10DB
:100C000031684900B0FBF1F807E00AEBCA0000EBDD
:100C10000A1031688900B0FBF1F86420B8FBF0F0ED
:100C200004012009642101FB1089A88900F4004017
:100C300040B1322000EBC900B0FBF1F000F007003A
:100C4000044308E0322000EB09106421B0FBF1F00E
:100C500000F00F0004432C8106B0BDE8F0870000CF
:100C60000038014001468888C0F308007047C1F38E
:100C7000080282807047000000B587B06148624971
:100C80000860624A4FF4FA716148FFF74FFD614A0C
:100C90004FF4FA716048FFF749FD5F485A49886090
:100CA0005B48486001218803FFF788FC012104208C
:100CB000FFF784FC4FF40070ADF8180003208DF8A6
:100CC0001A0018208DF81B0006A95448FFF799FB5D
:100CD0004FF48060ADF8180004208DF81B0006A9C1
:100CE0004E48FFF78EFB4FF4E13002900020ADF844
:100CF0000C00ADF80E00ADF81000ADF814000C209B
:100D0000ADF812004FF4A060FFF73EFC25208DF8EF
:100D1000040001208DF805008DF806008DF807000D
:100D200001A8FFF7F9FB02A93648FFF72FFF0122C0
:100D300040F225513348FFF704FF01213148FFF706
:100D4000BDFE374837490860374A4FF4FA713748D3
:100D5000FFF7ECFC364A4FF4FA713648FFF7E6FC31
:100D60003448304988603148486001214804FFF721
:100D700015FC01210420FFF721FC0420ADF8180028
:100D800003208DF81A0018208DF81B0006A92348AF
:100D9000FFF737FB0820ADF8180004208DF81B0082
:100DA00006A91E48FFF72DFB26208DF8040003201E
:100DB0008DF805008DF8060001208DF8070001A8C8
:100DC000FFF7AAFB4FF4E13002900020ADF80C00D1
:100DD000ADF80E00ADF81000ADF814000C20ADF821
:100DE000120002A90E48FFF7D1FE012240F2255160
:100DF0000B48FFF7A6FE01210948FFF75FFE07B089
:100E000000BD0000003801403804002034000020FC
:100E100020040020290200202C04002000080140AA
:100E2000004400404808002044040020300800200E
:100E3000390600203C08002070B5044607E06068D1
:100E4000FFF7A0FC05462946206800F006F8606818
:100E5000FFF73AFC0028F2D170BD70B504460D468C
:100E600029462046FFF703FF00BF80212046FFF7F9
:100E700031FE0028F9D070BD02E008C8121F08C179
:100E8000002AFAD170477047002001E001C1121F0B
:100E9000002AFBD1704710B5FFF784FDFFF7ECFE89
:100EA000FFF7C4F9002010BD124C00000000000044
:100EB0000000000000000000000000000000000032
:100EC0000000000000000000000000000000000022
:100ED0000000000000000000000000000000000012
:100EE0000000000000000000000000000000000002
:100EF00000000000000000000000000000000000F2
:100F000000000000000000000000000000000000E1
:100F100000000000000000000000000000000000D1
:100F200000000000000000000000000000000000C1
:100F300000000000000000000000000000000000B1
:100F400000000000000000000000000000000000A1
:100F50000000000000000000000000000000000091
:100F60000000000000000000000000000000000081
:100F70000000000000000000000000000000000071
:100F80000000000000000000000000000000000061
:100F90000000000000000000000000000000000051
:100FA0000000000000000000000000000000000041
:100FB0000000000000000000000000000000000031
:100FC0000000000000000000000000000000000021
:100FD0000000000000000000000000000000000011
:100FE0000000000000000000000000000000000001
:100FF00000000000000000000000000000000000F1
:1010000000000000000000000000000000000000E0
:10101000301000080000002034000000780E0008A6
:101020006410000834000020240C0000880E000822
:1010300000000000380400204808002000000000E4
:10104000010203040102030406070809020406085A
:1010500000A24A0400000000000000000102030496
:04106000060708096E
:0400000508000101ED
:00000001FF
